:060000000A128A11FC2F18
:10099A00831203138C1ED22CD32CCD2C8C121A0842
:1009AA00080001300A128A113E250A128A110D30F6
:1009BA00F900FB30F800F80BE02CF90BE02CE52CE1
:1009CA00080024308316031398009030831203130F
:1009DA0098001930831603139900831203138C129B
:1009EA000C12080083160313071387170A128A11B9
:1009FA00FA250A128A110A128A11E6240A128A119F
:100A0A000A128A11D6240A128A110A128A11CD24CC
:100A1A000A128A11FB007B080A128A117B250A1224
:100A2A008A110A2D0A128A110028F001F101F10A2D
:100A3A0042300A128A1192260A128A110330F500EC
:100A4A009730F400F40B272DF50B272D2C2DF001F0
:100A5A00F10142300A128A1192260A128A110330CF
:100A6A00F5009730F400F40B382DF50B382D3D2D99
:100A7A000800F7007708F60004300310F60CFF3E72
:100A8A00031D422D7608F00044300A128A11BA2555
:100A9A000A128A11F001F00AF10142300A128A118F
:100AAA0092260A128A110A128A111A250A128A1120
:100ABA007708F00044300A128A11BA250A128A11FC
:100ACA00F001F00AF10142300A128A1192260A1242
:100ADA008A110A128A111A250A128A11C730F600D7
:100AEA00762DF60B752D792D7A2D0800F7007708EB
:100AFA00F60004300310F60CFF3E031D7F2D760826
:100B0A00F00044300A128A11BA250A128A11F00139
:100B1A00F00AF101F10A42300A128A1192260A12E7
:100B2A008A110A128A111A250A128A117708F00004
:100B3A0044300A128A11BA250A128A11F001F00AFF
:100B4A00F101F10A42300A128A1192260A128A1116
:100B5A000A128A111A250A128A11C730F600B52D0F
:100B6A00F60BB42DB82DB92D0800F100F00EF030B7
:100B7A00F005EB2D0F30FF007F0883120313850564
:100B8A007008FF007F088504F92D0F30FF007F08E9
:100B9A008312031386057008FF007F088604F92D67
:100BAA000F30FF007F088312031387057008FF00C8
:100BBA007F088704F92D0F30FF007F088312031383
:100BCA0088057008FF007F088804F92D7108413AEA
:100BDA000319BF2D033A0319CA2D013A0319D52D5A
:100BEA00073A0319E02DF92D08000230FA00043003
:100BFA00F900BA30F800F80B002EF90B002EFA0BA8
:100C0A00002E00000430F000F10144300A128A116B
:100C1A0047270A128A110530F000F10144300A12FE
:100C2A008A1147270A128A110630F000F10144306E
:100C3A000A128A1147270A128A110730F000F101B5
:100C4A0044300A128A1147270A128A11F001F10167
:100C5A0042300A128A1147270A128A11F001F00A51
:100C6A00F10142300A128A1147270A128A11023008
:100C7A00F000F10142300A128A1147270A128A113A
:100C8A000230F000F10142300A128A1192260A1249
:100C9A008A1102300A128A113E250A128A110D306F
:100CAA00F900FB30F800F80B582EF90B582E5D2E80
:100CBA0028300A128A113E250A128A11C730F80012
:100CCA00662EF80B652E692E6A2E0E300A128A11CC
:100CDA003E250A128A11C730F800732EF80B722EBD
:100CEA00762E772E01300A128A113E250A128A11AF
:100CFA00C730F800802EF80B7F2E832E842E063004
:100D0A000A128A113E250A128A11C730F8008D2E5E
:100D1A00F80B8C2E902E912E0800F3002C2F7103C5
:100D2A00031D982E992EA92E0130F200700A9F2ECB
:100D3A000310F20DFF3E031D9D2E7208FF007F086F
:100D4A00831203138504462F0130F200700AAF2E76
:100D5A000310F20DFF3E031DAD2E7208FF3AFF008D
:100D6A007F08831203138505462F7103031DBE2EC8
:100D7A00BF2ECF2E0130F200700AC52E0310F20DDD
:100D8A00FF3E031DC32E7208FF007F088312031360
:100D9A008604462F0130F200700AD52E0310F20D98
:100DAA00FF3E031DD32E7208FF3AFF007F0883120D
:100DBA0003138605462F7103031DE42EE52EF52E37
:100DCA000130F200700AEB2E0310F20DFF3E031DF4
:100DDA00E92E7208FF007F08831203138704462F47
:100DEA000130F200700AFB2E0310F20DFF3E031DC4
:100DFA00F92E7208FF3AFF007F0883120313870552
:100E0A00462F7103031D0A2F0B2F1B2F0130F200EF
:100E1A00700A112F0310F20DFF3E031D0F2F7208E7
:100E2A00FF007F08831203138804462F0130F20063
:100E3A00700A212F0310F20DFF3E031D1F2F7208A7
:100E4A00FF3AFF007F08831203138805462F7308B1
:100E5A00413A0319942E033A0319BA2E013A031997
:100E6A00E02E073A0319062F253A0319942E033A5E
:100E7A000319BA2E013A0319E02E073A0319062F6D
:100E8A00462F0800F300E12F7108031D4D2F4E2F46
:100E9A005F2F0130F200700A542F0310F20DFF3E4B
:100EAA00031D522F7208FF3AFF007F0883160313AF
:100EBA008505FB2F0130F200700A652F0310F20D31
:100ECA00FF3E031D632F7208FF007F08831603137A
:100EDA008504FB2F7108031D732F742F852F013092
:100EEA00F200700A7A2F0310F20DFF3E031D782FCD
:100EFA007208FF3AFF007F08831603138605FB2F4B
:100F0A000130F200700A8B2F0310F20DFF3E031D11
:100F1A00892F7208FF007F08831603138604FB2FAC
:100F2A007108031D992F9A2FAB2F0130F200700A16
:100F3A00A02F0310F20DFF3E031D9E2F7208FF3AE9
:100F4A00FF007F08831603138705FB2F0130F20089
:100F5A00700AB12F0310F20DFF3E031DAF2F720866
:100F6A00FF007F08831603138704FB2F7108031DF4
:100F7A00BF2FC02FD12F0130F200700AC62F0310E5
:100F8A00F20DFF3E031DC42F7208FF3AFF007F08CF
:100F9A00831603138805FB2F0130F200700AD72F3E
:100FAA000310F20DFF3E031DD52F7208FF007F08C4
:100FBA00831603138804FB2F7308413A0319492F38
:100FCA00033A03196F2F013A0319952F073A0319A8
:100FDA00BB2F253A0319492F033A03196F2F013AF8
:100FEA000319952F073A0319BB2FFB2F080083011A
:060FFA000A128A11F72C17
:02400E00713F00
:00000001FF
